{
  "contractName": "TournamentScore",
  "abi": [
    {
      "anonymous": false,
      "inputs": [
        {
          "indexed": false,
          "internalType": "string",
          "name": "name",
          "type": "string"
        },
        {
          "indexed": false,
          "internalType": "uint256",
          "name": "score",
          "type": "uint256"
        }
      ],
      "name": "PlayerAdded",
      "type": "event"
    },
    {
      "inputs": [
        {
          "internalType": "uint256",
          "name": "",
          "type": "uint256"
        }
      ],
      "name": "players",
      "outputs": [
        {
          "internalType": "string",
          "name": "name",
          "type": "string"
        },
        {
          "internalType": "uint256",
          "name": "score",
          "type": "uint256"
        }
      ],
      "stateMutability": "view",
      "type": "function",
      "constant": true
    },
    {
      "inputs": [
        {
          "internalType": "string",
          "name": "_name",
          "type": "string"
        }
      ],
      "name": "addPlayer",
      "outputs": [],
      "stateMutability": "nonpayable",
      "type": "function"
    },
    {
      "inputs": [
        {
          "internalType": "uint256",
          "name": "_index",
          "type": "uint256"
        }
      ],
      "name": "getPlayerScore",
      "outputs": [
        {
          "internalType": "string",
          "name": "name",
          "type": "string"
        },
        {
          "internalType": "uint256",
          "name": "score",
          "type": "uint256"
        }
      ],
      "stateMutability": "view",
      "type": "function",
      "constant": true
    },
    {
      "inputs": [],
      "name": "getTotalPlayers",
      "outputs": [
        {
          "internalType": "uint256",
          "name": "",
          "type": "uint256"
        }
      ],
      "stateMutability": "view",
      "type": "function",
      "constant": true
    },
    {
      "inputs": [],
      "name": "getAllPlayers",
      "outputs": [
        {
          "components": [
            {
              "internalType": "string",
              "name": "name",
              "type": "string"
            },
            {
              "internalType": "uint256",
              "name": "score",
              "type": "uint256"
            }
          ],
          "internalType": "struct TournamentScore.Player[]",
          "name": "",
          "type": "tuple[]"
        }
      ],
      "stateMutability": "view",
      "type": "function",
      "constant": true
    },
    {
      "inputs": [
        {
          "internalType": "string[]",
          "name": "playerNames",
          "type": "string[]"
        },
        {
          "internalType": "uint256[]",
          "name": "scores",
          "type": "uint256[]"
        }
      ],
      "name": "finalizeTournament",
      "outputs": [],
      "stateMutability": "nonpayable",
      "type": "function"
    }
  ],
  "bytecode": "0x608060405234801561000f575f80fd5b506113d98061001d5f395ff3fe608060405234801561000f575f80fd5b5060043610610060575f3560e01c806342ac201d146100645780634529cae71461008057806390fdacf41461009e578063efa1c482146100cf578063f71d96cb146100ed578063f77e8b831461011e575b5f80fd5b61007e60048036038101906100799190610a9e565b61013a565b005b6100886103cc565b6040516100959190610b23565b60405180910390f35b6100b860048036038101906100b39190610b3c565b6103d7565b6040516100c6929190610be1565b60405180910390f35b6100d76104f9565b6040516100e49190610d5b565b60405180910390f35b61010760048036038101906101029190610b3c565b6105ed565b604051610115929190610be1565b60405180910390f35b61013860048036038101906101339190610d7b565b6106a1565b005b805182511461017e576040517f08c379a000000000000000000000000000000000000000000000000000000000815260040161017590610e32565b60405180910390fd5b5f5b82518110156103c7575f83828151811061019d5761019c610e50565b5b602002602001015151116101e6576040517f08c379a00000000000000000000000000000000000000000000000000000000081526004016101dd90610ec7565b60405180910390fd5b5f805b5f805490508110156102af5784838151811061020857610207610e50565b5b6020026020010151805190602001205f828154811061022a57610229610e50565b5b905f5260205f2090600202015f016040516102459190610fde565b60405180910390200361029c5783838151811061026557610264610e50565b5b60200260200101515f82815481106102805761027f610e50565b5b905f5260205f20906002020160010181905550600191506102af565b80806102a790611021565b9150506101e9565b50806103b3575f60405180604001604052808685815181106102d4576102d3610e50565b5b602002602001015181526020018585815181106102f4576102f3610e50565b5b6020026020010151815250908060018154018082558091505060019003905f5260205f2090600202015f909190919091505f820151815f0190816103389190611205565b506020820151816001015550507f04e8c7d1d6842c2dd64514d16ab713b7099bf0327e3c6361714d58f04a32aee684838151811061037957610378610e50565b5b602002602001015184848151811061039457610393610e50565b5b60200260200101516040516103aa929190610be1565b60405180910390a15b5080806103bf90611021565b915050610180565b505050565b5f8080549050905090565b60605f80805490508310610420576040517f08c379a00000000000000000000000000000000000000000000000000000000081526004016104179061131e565b60405180910390fd5b5f80848154811061043457610433610e50565b5b905f5260205f2090600202016040518060400160405290815f8201805461045a90610f12565b80601f016020809104026020016040519081016040528092919081815260200182805461048690610f12565b80156104d15780601f106104a8576101008083540402835291602001916104d1565b820191905f5260205f20905b8154815290600101906020018083116104b457829003601f168201915b505050505081526020016001820154815250509050805f015181602001519250925050915091565b60605f805480602002602001604051908101604052809291908181526020015f905b828210156105e4578382905f5260205f2090600202016040518060400160405290815f8201805461054b90610f12565b80601f016020809104026020016040519081016040528092919081815260200182805461057790610f12565b80156105c25780601f10610599576101008083540402835291602001916105c2565b820191905f5260205f20905b8154815290600101906020018083116105a557829003601f168201915b505050505081526020016001820154815250508152602001906001019061051b565b50505050905090565b5f81815481106105fb575f80fd5b905f5260205f2090600202015f91509050805f01805461061a90610f12565b80601f016020809104026020016040519081016040528092919081815260200182805461064690610f12565b80156106915780601f1061066857610100808354040283529160200191610691565b820191905f5260205f20905b81548152906001019060200180831161067457829003601f168201915b5050505050908060010154905082565b5f8151116106e4576040517f08c379a00000000000000000000000000000000000000000000000000000000081526004016106db90610ec7565b60405180910390fd5b5f60405180604001604052808381526020015f815250908060018154018082558091505060019003905f5260205f2090600202015f909190919091505f820151815f0190816107339190611205565b506020820151816001015550507f04e8c7d1d6842c2dd64514d16ab713b7099bf0327e3c6361714d58f04a32aee6815f604051610771929190611375565b60405180910390a150565b5f604051905090565b5f80fd5b5f80fd5b5f80fd5b5f601f19601f8301169050919050565b7f4e487b71000000000000000000000000000000000000000000000000000000005f52604160045260245ffd5b6107d782610791565b810181811067ffffffffffffffff821117156107f6576107f56107a1565b5b80604052505050565b5f61080861077c565b905061081482826107ce565b919050565b5f67ffffffffffffffff821115610833576108326107a1565b5b602082029050602081019050919050565b5f80fd5b5f80fd5b5f67ffffffffffffffff821115610866576108656107a1565b5b61086f82610791565b9050602081019050919050565b828183375f83830152505050565b5f61089c6108978461084c565b6107ff565b9050828152602081018484840111156108b8576108b7610848565b5b6108c384828561087c565b509392505050565b5f82601f8301126108df576108de61078d565b5b81356108ef84826020860161088a565b91505092915050565b5f61090a61090584610819565b6107ff565b9050808382526020820190506020840283018581111561092d5761092c610844565b5b835b8181101561097457803567ffffffffffffffff8111156109525761095161078d565b5b80860161095f89826108cb565b8552602085019450505060208101905061092f565b5050509392505050565b5f82601f8301126109925761099161078d565b5b81356109a28482602086016108f8565b91505092915050565b5f67ffffffffffffffff8211156109c5576109c46107a1565b5b602082029050602081019050919050565b5f819050919050565b6109e8816109d6565b81146109f2575f80fd5b50565b5f81359050610a03816109df565b92915050565b5f610a1b610a16846109ab565b6107ff565b90508083825260208201905060208402830185811115610a3e57610a3d610844565b5b835b81811015610a675780610a5388826109f5565b845260208401935050602081019050610a40565b5050509392505050565b5f82601f830112610a8557610a8461078d565b5b8135610a95848260208601610a09565b91505092915050565b5f8060408385031215610ab457610ab3610785565b5b5f83013567ffffffffffffffff811115610ad157610ad0610789565b5b610add8582860161097e565b925050602083013567ffffffffffffffff811115610afe57610afd610789565b5b610b0a85828601610a71565b9150509250929050565b610b1d816109d6565b82525050565b5f602082019050610b365f830184610b14565b92915050565b5f60208284031215610b5157610b50610785565b5b5f610b5e848285016109f5565b91505092915050565b5f81519050919050565b5f82825260208201905092915050565b5f5b83811015610b9e578082015181840152602081019050610b83565b5f8484015250505050565b5f610bb382610b67565b610bbd8185610b71565b9350610bcd818560208601610b81565b610bd681610791565b840191505092915050565b5f6040820190508181035f830152610bf98185610ba9565b9050610c086020830184610b14565b9392505050565b5f81519050919050565b5f82825260208201905092915050565b5f819050602082019050919050565b5f82825260208201905092915050565b5f610c5282610b67565b610c5c8185610c38565b9350610c6c818560208601610b81565b610c7581610791565b840191505092915050565b610c89816109d6565b82525050565b5f604083015f8301518482035f860152610ca98282610c48565b9150506020830151610cbe6020860182610c80565b508091505092915050565b5f610cd48383610c8f565b905092915050565b5f602082019050919050565b5f610cf282610c0f565b610cfc8185610c19565b935083602082028501610d0e85610c29565b805f5b85811015610d495784840389528151610d2a8582610cc9565b9450610d3583610cdc565b925060208a01995050600181019050610d11565b50829750879550505050505092915050565b5f6020820190508181035f830152610d738184610ce8565b905092915050565b5f60208284031215610d9057610d8f610785565b5b5f82013567ffffffffffffffff811115610dad57610dac610789565b5b610db9848285016108cb565b91505092915050565b7f4c6573207461626c6561757820646f6976656e742061766f6972206c61206d655f8201527f6d65206c6f6e6775657572000000000000000000000000000000000000000000602082015250565b5f610e1c602b83610b71565b9150610e2782610dc2565b604082019050919050565b5f6020820190508181035f830152610e4981610e10565b9050919050565b7f4e487b71000000000000000000000000000000000000000000000000000000005f52603260045260245ffd5b7f4c65206e6f6d206e6520706575742070617320657472652076696465000000005f82015250565b5f610eb1601c83610b71565b9150610ebc82610e7d565b602082019050919050565b5f6020820190508181035f830152610ede81610ea5565b9050919050565b7f4e487b71000000000000000000000000000000000000000000000000000000005f52602260045260245ffd5b5f6002820490506001821680610f2957607f821691505b602082108103610f3c57610f3b610ee5565b5b50919050565b5f81905092915050565b5f819050815f5260205f209050919050565b5f8154610f6a81610f12565b610f748186610f42565b9450600182165f8114610f8e5760018114610fa357610fd5565b60ff1983168652811515820286019350610fd5565b610fac85610f4c565b5f5b83811015610fcd57815481890152600182019150602081019050610fae565b838801955050505b50505092915050565b5f610fe98284610f5e565b915081905092915050565b7f4e487b71000000000000000000000000000000000000000000000000000000005f52601160045260245ffd5b5f61102b826109d6565b91507fffffffffffffffffffffffffffffffffffffffffffffffffffffffffffffffff820361105d5761105c610ff4565b5b600182019050919050565b5f819050815f5260205f209050919050565b5f6020601f8301049050919050565b5f82821b905092915050565b5f600883026110c47fffffffffffffffffffffffffffffffffffffffffffffffffffffffffffffffff82611089565b6110ce8683611089565b95508019841693508086168417925050509392505050565b5f819050919050565b5f6111096111046110ff846109d6565b6110e6565b6109d6565b9050919050565b5f819050919050565b611122836110ef565b61113661112e82611110565b848454611095565b825550505050565b5f90565b61114a61113e565b611155818484611119565b505050565b5b818110156111785761116d5f82611142565b60018101905061115b565b5050565b601f8211156111bd5761118e81611068565b6111978461107a565b810160208510156111a6578190505b6111ba6111b28561107a565b83018261115a565b50505b505050565b5f82821c905092915050565b5f6111dd5f19846008026111c2565b1980831691505092915050565b5f6111f583836111ce565b9150826002028217905092915050565b61120e82610b67565b67ffffffffffffffff811115611227576112266107a1565b5b6112318254610f12565b61123c82828561117c565b5f60209050601f83116001811461126d575f841561125b578287015190505b61126585826111ea565b8655506112cc565b601f19841661127b86611068565b5f5b828110156112a25784890151825560018201915060208501945060208101905061127d565b868310156112bf57848901516112bb601f8916826111ce565b8355505b6001600288020188555050505b505050505050565b7f496e64657820686f7273206c696d6974657300000000000000000000000000005f82015250565b5f611308601283610b71565b9150611313826112d4565b602082019050919050565b5f6020820190508181035f830152611335816112fc565b9050919050565b5f819050919050565b5f61135f61135a6113558461133c565b6110e6565b6109d6565b9050919050565b61136f81611345565b82525050565b5f6040820190508181035f83015261138d8185610ba9565b905061139c6020830184611366565b939250505056fea2646970667358221220d81d2a3ec973cdfdea3b054c23658454847f83f187afcb3ec6c66869bca6a13564736f6c63430008150033",
  "immutableReferences": {},
  "source": "// SPDX-License-Identifier: MIT\npragma solidity ^0.8.0;\n\ncontract TournamentScore {\n    struct Player {\n        string name;\n        uint score;\n    }\n\n    Player[] public players;\n\n    // Ajouter un vnement pour suivre les ajouts de joueurs\n    event PlayerAdded(string name, uint score);\n\n    function addPlayer(string memory _name) public {\n        require(bytes(_name).length > 0, \"Le nom ne peut pas etre vide\");\n        players.push(Player(_name, 0));\n        emit PlayerAdded(_name, 0); // Emettre un vnement aprs l'ajout d'un joueur\n    }\n\n    function getPlayerScore(uint _index) public view returns (string memory name, uint score) {\n        require(_index < players.length, \"Index hors limites\");\n        Player memory player = players[_index];\n        return (player.name, player.score);\n    }\n\n    function getTotalPlayers() public view returns (uint) {\n        return players.length;\n    }\n\n    function getAllPlayers() public view returns (Player[] memory) {\n        return players;\n    }\n\n   function finalizeTournament(string[] memory playerNames, uint[] memory scores) public {\n    require(playerNames.length == scores.length, \"Les tableaux doivent avoir la meme longueur\");\n    for (uint i = 0; i < playerNames.length; i++) {\n        require(bytes(playerNames[i]).length > 0, \"Le nom ne peut pas etre vide\");\n\n        // Rechercher le joueur par son nom et mettre  jour son score\n        bool found = false;\n        for (uint j = 0; j < players.length; j++) {\n            if (keccak256(bytes(players[j].name)) == keccak256(bytes(playerNames[i]))) {\n                players[j].score = scores[i];\n                found = true;\n                break;\n            }\n        }\n\n        // Si le joueur n'est pas trouv, l'ajouter\n        if (!found) {\n            players.push(Player(playerNames[i], scores[i]));\n            emit PlayerAdded(playerNames[i], scores[i]);\n        }\n    }\n}\n}\n",
  "sourcePath": "/home/cmy/Desktop/pongGame/contracts/TournamentScore.sol",
  "compiler": {
    "name": "solc",
    "version": "0.8.21+commit.d9974bed.Emscripten.clang"
  },
  "schemaVersion": "3.4.16",
  "updatedAt": "2024-10-02T15:55:42.750Z",
  "networkType": "ethereum",
  "devdoc": {
    "kind": "dev",
    "methods": {},
    "version": 1
  },
  "userdoc": {
    "kind": "user",
    "methods": {},
    "version": 1
  }
}