{
  "contractName": "TournamentScore",
  "abi": [
    {
      "anonymous": false,
      "inputs": [
        {
          "indexed": false,
          "internalType": "string",
          "name": "name",
          "type": "string"
        },
        {
          "indexed": false,
          "internalType": "uint256",
          "name": "score",
          "type": "uint256"
        }
      ],
      "name": "PlayerAdded",
      "type": "event"
    },
    {
      "inputs": [
        {
          "internalType": "uint256",
          "name": "",
          "type": "uint256"
        }
      ],
      "name": "players",
      "outputs": [
        {
          "internalType": "string",
          "name": "name",
          "type": "string"
        },
        {
          "internalType": "uint256",
          "name": "score",
          "type": "uint256"
        }
      ],
      "stateMutability": "view",
      "type": "function",
      "constant": true
    },
    {
      "inputs": [
        {
          "internalType": "string",
          "name": "_name",
          "type": "string"
        }
      ],
      "name": "addPlayer",
      "outputs": [],
      "stateMutability": "nonpayable",
      "type": "function"
    },
    {
      "inputs": [
        {
          "internalType": "uint256",
          "name": "_index",
          "type": "uint256"
        }
      ],
      "name": "getPlayerScore",
      "outputs": [
        {
          "internalType": "string",
          "name": "name",
          "type": "string"
        },
        {
          "internalType": "uint256",
          "name": "score",
          "type": "uint256"
        }
      ],
      "stateMutability": "view",
      "type": "function",
      "constant": true
    },
    {
      "inputs": [],
      "name": "getTotalPlayers",
      "outputs": [
        {
          "internalType": "uint256",
          "name": "",
          "type": "uint256"
        }
      ],
      "stateMutability": "view",
      "type": "function",
      "constant": true
    },
    {
      "inputs": [],
      "name": "getAllPlayers",
      "outputs": [
        {
          "components": [
            {
              "internalType": "string",
              "name": "name",
              "type": "string"
            },
            {
              "internalType": "uint256",
              "name": "score",
              "type": "uint256"
            }
          ],
          "internalType": "struct TournamentScore.Player[]",
          "name": "",
          "type": "tuple[]"
        }
      ],
      "stateMutability": "view",
      "type": "function",
      "constant": true
    },
    {
      "inputs": [
        {
          "internalType": "string[]",
          "name": "playerNames",
          "type": "string[]"
        },
        {
          "internalType": "uint256[]",
          "name": "scores",
          "type": "uint256[]"
        }
      ],
      "name": "finalizeTournament",
      "outputs": [],
      "stateMutability": "nonpayable",
      "type": "function"
    }
  ],
  "bytecode": "0x608060405234801561000f575f80fd5b506112568061001d5f395ff3fe608060405234801561000f575f80fd5b5060043610610060575f3560e01c806342ac201d146100645780634529cae71461008057806390fdacf41461009e578063efa1c482146100cf578063f71d96cb146100ed578063f77e8b831461011e575b5f80fd5b61007e600480360381019061007991906109cd565b61013a565b005b6100886102fb565b6040516100959190610a52565b60405180910390f35b6100b860048036038101906100b39190610a6b565b610306565b6040516100c6929190610b10565b60405180910390f35b6100d7610428565b6040516100e49190610c8a565b60405180910390f35b61010760048036038101906101029190610a6b565b61051c565b604051610115929190610b10565b60405180910390f35b61013860048036038101906101339190610caa565b6105d0565b005b805182511461017e576040517f08c379a000000000000000000000000000000000000000000000000000000000815260040161017590610d61565b60405180910390fd5b5f5b82518110156102f6575f83828151811061019d5761019c610d7f565b5b602002602001015151116101e6576040517f08c379a00000000000000000000000000000000000000000000000000000000081526004016101dd90610df6565b60405180910390fd5b5f604051806040016040528085848151811061020557610204610d7f565b5b6020026020010151815260200184848151811061022557610224610d7f565b5b6020026020010151815250908060018154018082558091505060019003905f5260205f2090600202015f909190919091505f820151815f019081610269919061100e565b506020820151816001015550507f04e8c7d1d6842c2dd64514d16ab713b7099bf0327e3c6361714d58f04a32aee68382815181106102aa576102a9610d7f565b5b60200260200101518383815181106102c5576102c4610d7f565b5b60200260200101516040516102db929190610b10565b60405180910390a180806102ee9061110a565b915050610180565b505050565b5f8080549050905090565b60605f8080549050831061034f576040517f08c379a00000000000000000000000000000000000000000000000000000000081526004016103469061119b565b60405180910390fd5b5f80848154811061036357610362610d7f565b5b905f5260205f2090600202016040518060400160405290815f8201805461038990610e41565b80601f01602080910402602001604051908101604052809291908181526020018280546103b590610e41565b80156104005780601f106103d757610100808354040283529160200191610400565b820191905f5260205f20905b8154815290600101906020018083116103e357829003601f168201915b505050505081526020016001820154815250509050805f015181602001519250925050915091565b60605f805480602002602001604051908101604052809291908181526020015f905b82821015610513578382905f5260205f2090600202016040518060400160405290815f8201805461047a90610e41565b80601f01602080910402602001604051908101604052809291908181526020018280546104a690610e41565b80156104f15780601f106104c8576101008083540402835291602001916104f1565b820191905f5260205f20905b8154815290600101906020018083116104d457829003601f168201915b505050505081526020016001820154815250508152602001906001019061044a565b50505050905090565b5f818154811061052a575f80fd5b905f5260205f2090600202015f91509050805f01805461054990610e41565b80601f016020809104026020016040519081016040528092919081815260200182805461057590610e41565b80156105c05780601f10610597576101008083540402835291602001916105c0565b820191905f5260205f20905b8154815290600101906020018083116105a357829003601f168201915b5050505050908060010154905082565b5f815111610613576040517f08c379a000000000000000000000000000000000000000000000000000000000815260040161060a90610df6565b60405180910390fd5b5f60405180604001604052808381526020015f815250908060018154018082558091505060019003905f5260205f2090600202015f909190919091505f820151815f019081610662919061100e565b506020820151816001015550507f04e8c7d1d6842c2dd64514d16ab713b7099bf0327e3c6361714d58f04a32aee6815f6040516106a09291906111f2565b60405180910390a150565b5f604051905090565b5f80fd5b5f80fd5b5f80fd5b5f601f19601f8301169050919050565b7f4e487b71000000000000000000000000000000000000000000000000000000005f52604160045260245ffd5b610706826106c0565b810181811067ffffffffffffffff82111715610725576107246106d0565b5b80604052505050565b5f6107376106ab565b905061074382826106fd565b919050565b5f67ffffffffffffffff821115610762576107616106d0565b5b602082029050602081019050919050565b5f80fd5b5f80fd5b5f67ffffffffffffffff821115610795576107946106d0565b5b61079e826106c0565b9050602081019050919050565b828183375f83830152505050565b5f6107cb6107c68461077b565b61072e565b9050828152602081018484840111156107e7576107e6610777565b5b6107f28482856107ab565b509392505050565b5f82601f83011261080e5761080d6106bc565b5b813561081e8482602086016107b9565b91505092915050565b5f61083961083484610748565b61072e565b9050808382526020820190506020840283018581111561085c5761085b610773565b5b835b818110156108a357803567ffffffffffffffff811115610881576108806106bc565b5b80860161088e89826107fa565b8552602085019450505060208101905061085e565b5050509392505050565b5f82601f8301126108c1576108c06106bc565b5b81356108d1848260208601610827565b91505092915050565b5f67ffffffffffffffff8211156108f4576108f36106d0565b5b602082029050602081019050919050565b5f819050919050565b61091781610905565b8114610921575f80fd5b50565b5f813590506109328161090e565b92915050565b5f61094a610945846108da565b61072e565b9050808382526020820190506020840283018581111561096d5761096c610773565b5b835b8181101561099657806109828882610924565b84526020840193505060208101905061096f565b5050509392505050565b5f82601f8301126109b4576109b36106bc565b5b81356109c4848260208601610938565b91505092915050565b5f80604083850312156109e3576109e26106b4565b5b5f83013567ffffffffffffffff811115610a00576109ff6106b8565b5b610a0c858286016108ad565b925050602083013567ffffffffffffffff811115610a2d57610a2c6106b8565b5b610a39858286016109a0565b9150509250929050565b610a4c81610905565b82525050565b5f602082019050610a655f830184610a43565b92915050565b5f60208284031215610a8057610a7f6106b4565b5b5f610a8d84828501610924565b91505092915050565b5f81519050919050565b5f82825260208201905092915050565b5f5b83811015610acd578082015181840152602081019050610ab2565b5f8484015250505050565b5f610ae282610a96565b610aec8185610aa0565b9350610afc818560208601610ab0565b610b05816106c0565b840191505092915050565b5f6040820190508181035f830152610b288185610ad8565b9050610b376020830184610a43565b9392505050565b5f81519050919050565b5f82825260208201905092915050565b5f819050602082019050919050565b5f82825260208201905092915050565b5f610b8182610a96565b610b8b8185610b67565b9350610b9b818560208601610ab0565b610ba4816106c0565b840191505092915050565b610bb881610905565b82525050565b5f604083015f8301518482035f860152610bd88282610b77565b9150506020830151610bed6020860182610baf565b508091505092915050565b5f610c038383610bbe565b905092915050565b5f602082019050919050565b5f610c2182610b3e565b610c2b8185610b48565b935083602082028501610c3d85610b58565b805f5b85811015610c785784840389528151610c598582610bf8565b9450610c6483610c0b565b925060208a01995050600181019050610c40565b50829750879550505050505092915050565b5f6020820190508181035f830152610ca28184610c17565b905092915050565b5f60208284031215610cbf57610cbe6106b4565b5b5f82013567ffffffffffffffff811115610cdc57610cdb6106b8565b5b610ce8848285016107fa565b91505092915050565b7f4c6573207461626c6561757820646f6976656e742061766f6972206c61206d655f8201527f6d65206c6f6e6775657572000000000000000000000000000000000000000000602082015250565b5f610d4b602b83610aa0565b9150610d5682610cf1565b604082019050919050565b5f6020820190508181035f830152610d7881610d3f565b9050919050565b7f4e487b71000000000000000000000000000000000000000000000000000000005f52603260045260245ffd5b7f4c65206e6f6d206e6520706575742070617320657472652076696465000000005f82015250565b5f610de0601c83610aa0565b9150610deb82610dac565b602082019050919050565b5f6020820190508181035f830152610e0d81610dd4565b9050919050565b7f4e487b71000000000000000000000000000000000000000000000000000000005f52602260045260245ffd5b5f6002820490506001821680610e5857607f821691505b602082108103610e6b57610e6a610e14565b5b50919050565b5f819050815f5260205f209050919050565b5f6020601f8301049050919050565b5f82821b905092915050565b5f60088302610ecd7fffffffffffffffffffffffffffffffffffffffffffffffffffffffffffffffff82610e92565b610ed78683610e92565b95508019841693508086168417925050509392505050565b5f819050919050565b5f610f12610f0d610f0884610905565b610eef565b610905565b9050919050565b5f819050919050565b610f2b83610ef8565b610f3f610f3782610f19565b848454610e9e565b825550505050565b5f90565b610f53610f47565b610f5e818484610f22565b505050565b5b81811015610f8157610f765f82610f4b565b600181019050610f64565b5050565b601f821115610fc657610f9781610e71565b610fa084610e83565b81016020851015610faf578190505b610fc3610fbb85610e83565b830182610f63565b50505b505050565b5f82821c905092915050565b5f610fe65f1984600802610fcb565b1980831691505092915050565b5f610ffe8383610fd7565b9150826002028217905092915050565b61101782610a96565b67ffffffffffffffff8111156110305761102f6106d0565b5b61103a8254610e41565b611045828285610f85565b5f60209050601f831160018114611076575f8415611064578287015190505b61106e8582610ff3565b8655506110d5565b601f19841661108486610e71565b5f5b828110156110ab57848901518255600182019150602085019450602081019050611086565b868310156110c857848901516110c4601f891682610fd7565b8355505b6001600288020188555050505b505050505050565b7f4e487b71000000000000000000000000000000000000000000000000000000005f52601160045260245ffd5b5f61111482610905565b91507fffffffffffffffffffffffffffffffffffffffffffffffffffffffffffffffff8203611146576111456110dd565b5b600182019050919050565b7f496e64657820686f7273206c696d6974657300000000000000000000000000005f82015250565b5f611185601283610aa0565b915061119082611151565b602082019050919050565b5f6020820190508181035f8301526111b281611179565b9050919050565b5f819050919050565b5f6111dc6111d76111d2846111b9565b610eef565b610905565b9050919050565b6111ec816111c2565b82525050565b5f6040820190508181035f83015261120a8185610ad8565b905061121960208301846111e3565b939250505056fea2646970667358221220c54057edd83197a21f5e62fc27f74429354e52b342af4fe0e4655e2e5ea3eec564736f6c63430008150033",
  "immutableReferences": {},
  "source": "// SPDX-License-Identifier: MIT\npragma solidity ^0.8.0;\n\ncontract TournamentScore {\n    struct Player {\n        string name;\n        uint score;\n    }\n\n    Player[] public players;\n\n    // Ajouter un vnement pour suivre les ajouts de joueurs\n    event PlayerAdded(string name, uint score);\n\n    function addPlayer(string memory _name) public {\n        require(bytes(_name).length > 0, \"Le nom ne peut pas etre vide\");\n        players.push(Player(_name, 0));\n        emit PlayerAdded(_name, 0); // Emettre un vnement aprs l'ajout d'un joueur\n    }\n\n    function getPlayerScore(uint _index) public view returns (string memory name, uint score) {\n        require(_index < players.length, \"Index hors limites\");\n        Player memory player = players[_index];\n        return (player.name, player.score);\n    }\n\n    function getTotalPlayers() public view returns (uint) {\n        return players.length;\n    }\n\n    function getAllPlayers() public view returns (Player[] memory) {\n        return players;\n    }\n\n    function finalizeTournament(string[] memory playerNames, uint[] memory scores) public {\n        require(playerNames.length == scores.length, \"Les tableaux doivent avoir la meme longueur\");\n        for (uint i = 0; i < playerNames.length; i++) {\n            require(bytes(playerNames[i]).length > 0, \"Le nom ne peut pas etre vide\");\n            players.push(Player(playerNames[i], scores[i]));\n            emit PlayerAdded(playerNames[i], scores[i]); // Emettre un vnement aprs l'ajout d'un joueur avec son score\n        }\n    }\n}\n",
  "sourcePath": "/home/cmy/Desktop/pongGame/contracts/TournamentScore.sol",
  "compiler": {
    "name": "solc",
    "version": "0.8.21+commit.d9974bed.Emscripten.clang"
  },
  "schemaVersion": "3.4.16",
  "updatedAt": "2024-10-01T18:26:59.454Z",
  "networkType": "ethereum",
  "devdoc": {
    "kind": "dev",
    "methods": {},
    "version": 1
  },
  "userdoc": {
    "kind": "user",
    "methods": {},
    "version": 1
  }
}